:020000020000FC
:100000000C9404000C94620048E04EBF4FEF4DBFCB
:1000100042E0409369005A9A259A2D9841E04DBBE1
:100020007894229A2A9A0E941A002A980E943200F2
:100030002A9AF9CF0F931F932F932FE018EC08EE15
:1000400000000000000000000000000000000000B0
:100050000A95B1F71A9599F72A9581F72F911F9173
:100060000F9108950F931F932F932AE018EC08EE39
:100070000000000000000000000000000000000080
:100080000A95B1F71A9599F72A9581F72F911F9143
:100090000F9108950F931F932F9320E218EC0AEF0E
:1000A0000000000000000000000000000000000050
:1000B0000A95B1F71A9599F72A9581F72F911F9113
:1000C0000F91089555B160E2562755B90E944A0034
:0200D000189581
:00000001FF
