:100000000C94D7000C94F4000C94F4000C94F400BD
:100010000C94F4000C94F4000C94F4000C94F40090
:100020000C94F4000C94F4000C94F4000C94F40080
:100030000C94F4000C94F4000C94F4000C94F40070
:100040000C94F4000C94F4000C94F4000C94F40060
:100050000C94F4000C94F4000C94F4000C94F40050
:100060000C94F4000C94F4000C94F4000C94F40040
:100070000C94F4000C94F4000C94F4000C94F40030
:100080000C94F4000C94F4000C94F4000C94F40020
:100090000C94F4000C94F4000C94F4000C94F40010
:1000A0000C94F4000C94F4000C94F4000C94F40000
:1000B0000C94F40000407A10F35A00A0724E180914
:1000C0000010A5D4E80000E87648170000E40B54BF
:1000D000020000CA9A3B000000E1F505000080968E
:1000E0009800000040420F000000A08601000000C0
:1000F000102700000000E80300000000640000007A
:1001000000000A00000000000100000000002C7642
:10011000D888DC674F0823DFC1DFAE59E1B1B7965D
:10012000E5E3E453C63AE651997696E8E6C28426BA
:10013000EB898C9B62ED407C6FFCEFBC9C9F40F296
:10014000BAA56FA5F490055A2AF75C936B6CF96712
:100150006DC11BFCE0E40D47FEF520E6B500D0EDD7
:10016000902E0300943577050080841E080000203F
:100170004E0A000000C80C333333330F986E1283DD
:100180001141EF8D2114893BE65516CFFEE6DB18B1
:10019000D1844B381BF77C1D901DA4BBE424203276
:1001A00084725E228100C9F124ECA1E53D2711246F
:1001B0001FBECFEFD8E0DEBFCDBF11E0A0E0B1E0C1
:1001C000EEE2F1E102C005900D92A63CB107D9F72D
:1001D00021E0A6ECB1E001C01D92A63DB207E1F717
:1001E0000E943F020C9495080C94000088E48093D0
:1001F000B8000895ECEBF0E0108294EA90839081CF
:100200009923ECF79091B900987F9830A1F48093EE
:10021000BB0084E88093BC00ECEBF0E08081882395
:10022000ECF79091B900987F983139F081E09034E3
:1002300029F480E0089581E0089580E00895809396
:10024000BB0084E88093BC00ECEBF0E08081882365
:10025000ECF79091B900987F81E0983209F480E042
:10026000089584EC8093BC00ECEBF0E0808188235F
:10027000ECF78091BB00089584E98093BC00089559
:1002800001979C0140E050E060E472E48FE090E070
:100290000E943703832F99278093C5002093C400C1
:1002A000E1ECF0E0808188698083E2ECF0E080811D
:1002B0008E6080830895E0ECF0E0908195FFFDCFA3
:1002C0008093C6000895CF93DF93EC018881882343
:1002D00031F021960E945B0189918111FBCFDF9162
:1002E000CF9108952FEF82E597E021508040904014
:1002F000E1F700C0000082E70E94FA0080E80E9457
:100300001F0180E00E941F010E943C0182E70E94C1
:10031000FA0081E80E941F018BED0E941F010E94DC
:100320003C0182E70E94FA008FE80E941F0181E0F1
:100330000E941F010E943C0182E70E94FA0080E8AF
:100340000E941F0183E00E941F010E943C0108954A
:10035000CF9382E70E94FA0085E90E941F010E9464
:100360003C0183E70E94FA000E943101C82F0E94DD
:1003700031016C2F70E0762F6627682B072E000C5A
:10038000880B990B0E94FC026093CE017093CF0101
:100390008093D0019093D1010E943C0182E70E949A
:1003A000FA0087E90E941F010E943C0183E70E9436
:1003B000FA000E943101C82F0E9431016C2F70E0B9
:1003C000762F6627682B072E000C880B990B0E944E
:1003D000FC026093C6017093C7018093C80190939B
:1003E000C9010E943C0182E70E94FA0089E90E944B
:1003F0001F010E943C0183E70E94FA000E94310124
:10040000C82F0E9431016C2F70E0762F6627682B71
:10041000072E000C880B990B0E94FC026093D201FE
:100420007093D3018093D4019093D5010E943C0135
:1004300082E70E94FA008BE90E941F010E943C01A2
:1004400083E70E94FA000E943101C82F0E94310107
:100450006C2F70E0762F6627682B072E000C880B18
:10046000990B0E94FC026093CA017093CB018093A8
:10047000CC019093CD010E943C01CF910895CF9380
:10048000DF93CDB7DEB7A2970FB6F894DEBF0FBEED
:10049000CDBF80E895E20E9440010E94F6000E94D4
:1004A000720180E091E00E94630187E091E00E9488
:1004B00063017E0125E1E20EF11C0F2EF2E32F2EE7
:1004C000F1E03F2EF02DCE0101966C010E94A801B3
:1004D0004090C6015090C7016090C8017090C9015A
:1004E0008090D2019090D301A090D401B090D5011A
:1004F0008091CA019091CB01A091CC01B091CD0126
:100500008F8F98A3A9A3BAA36091CE017091CF0158
:100510008091D0019091D101870122E043E00E94B7
:100520005903FF92EF923F922F92DF92CF920E9457
:100530007903C6010E94630122E043E0C301B201D6
:100540000E945903FF92EF92AAE3B1E0BF93AF93E9
:10055000DF92CF920E947903C6010E94630122E0DC
:1005600043E0C501B4010E945903FF92EF9282E477
:1005700091E09F938F93DF92CF920E947903C601FF
:100580000E94630122E043E06F8D78A189A19AA1C6
:100590000E945903FF92EF928AE491E09F938F9318
:1005A000DF92CF920E947903C6010E94630182E527
:1005B00091E00E9463018CE791E00E9463018AE868
:1005C00091E00E94630189EB91E00E94630184E065
:1005D00091E00E946301BFEF23ED80E3B150204022
:1005E0008040E1F700C000000FB6F894DEBF0FBEF8
:1005F000CDBF6CCFE89409C097FB3EF490958095F1
:10060000709561957F4F8F4F9F4F9923A9F0F92FD8
:1006100096E9BB279395F695879577956795B79556
:10062000F111F8CFFAF4BB0F11F460FF1BC06F5F3C
:100630007F4F8F4F9F4F16C0882311F096E911C04E
:10064000772321F09EE8872F762F05C0662371F06F
:1006500096E8862F70E060E02AF09A95660F771F83
:10066000881FDAF7880F9695879597F90895A1E284
:100670001A2EAA1BBB1BFD010DC0AA1FBB1FEE1F1C
:10068000FF1FA217B307E407F50720F0A21BB30B67
:10069000E40BF50B661F771F881F991F1A9469F7E3
:1006A00060957095809590959B01AC01BD01CF013F
:1006B0000895EF920F931F93CF93DF93E80147FDC7
:1006C00002C034E001C034E1042E000C550B57FF8A
:1006D00003C0519541955109E32E022F242FAE01FD
:1006E0000E947C05CE01DF91CF911F910F91EF9079
:1006F0000895AEE0B0E0EFE7F3E00C946C080D89EC
:100700001E8986E08C831A8309838FEF9FE79E837F
:100710008D83AE01475E5F4F6F89788DCE01019664
:100720000E949B03EF81F885E00FF11F10822E9647
:10073000E4E00C948808ABE0B0E0E1EAF3E00C946C
:100740005E086C017B018A01FC011782168283819D
:1007500081FFCCC1CE0101963C01F6019381F701E6
:1007600093FD859193FF81917F01882309F4BAC19C
:10077000853239F493FD859193FF81917F01853214
:1007800029F4B60190E00E94C407E7CF912C212CF8
:10079000312CFFE1F315D8F08B3279F038F4803248
:1007A00079F08332A1F4232D20611DC08D3261F0D8
:1007B000803369F4232D216016C0832D8260382E8A
:1007C000E32DE4603E2E2AC0F32DF8601DC037FCF7
:1007D0002DC020ED280F2A3040F08E32B9F436FCBF
:1007E00081C1232D2064322E19C036FE06C08AE056
:1007F000989E200D1124922E11C0EAE02E9E200D0D
:100800001124222EF32DF0623F2E08C08C3621F4E5
:10081000832D8068382E02C0883641F4F70193FD9D
:10082000859193FF81917F018111B3CF982F9F7D97
:100830009554933028F40C5F1F4F9FE399830DC0AC
:10084000833631F0833771F0833509F059C021C008
:10085000F801808189830E5F1F4F88248394912C37
:10086000530113C02801F2E04F0E511CF801A08083
:10087000B18036FE03C0692D70E002C06FEF7FEFDC
:10088000C5010E94B9074C018201F32DFF773F2E6D
:1008900016C0280122E0420E511CF801A080B18050
:1008A00036FE03C0692D70E002C06FEF7FEFC50117
:1008B0000E94AE074C01F32DF0683F2E820133FCFD
:1008C0001BC0822D90E088169906B0F4B60180E234
:1008D00090E00E94C4072A94F4CFF50137FC85917B
:1008E00037FE81915F01B60190E00E94C40721109C
:1008F0002A9421E0821A91088114910471F7E8C0CA
:10090000843611F0893641F5F80137FE07C0608161
:100910007181828193810C5F1F4F08C0608171815A
:10092000072E000C880B990B0E5F1F4FF32DFF76DF
:100930003F2E97FF09C090958095709561957F4FE8
:100940008F4F9F4FF0683F2E2AE030E0A3010E94B6
:100950000008882E861845C0853731F4232D2F7E58
:10096000B22E2AE030E025C0932D997FB92E8F3624
:10097000C1F018F4883579F0B5C0803719F08837A0
:1009800021F0B0C0E92FE061BE2EB4FE0DC0FB2DFA
:10099000F460BF2E09C034FE0AC0292F2660B22E93
:1009A00006C028E030E005C020E130E002C020E1D0
:1009B00032E0F801B7FE07C06081718182819381C6
:1009C0000C5F1F4F06C06081718180E090E00E5F78
:1009D0001F4FA3010E940008882E8618FB2DFF7769
:1009E0003F2E36FE0DC0232D2E7FA22E891458F4E3
:1009F00034FE0BC032FC09C0832D8E7EA82E05C0AC
:100A0000B82CA32C03C0B82C01C0B92CA4FE0FC075
:100A1000FE01E80DF11D8081803321F49A2D997E2D
:100A2000A92E09C0A2FE06C0B394B39404C08A2DB7
:100A3000867809F0B394A3FC11C0A0FE06C0B214DE
:100A400088F4280C922C9B180EC0B21460F4B601E6
:100A500080E290E00E94C407B394F7CFB21418F478
:100A60002B1802C0982C212CA4FE10C0B60180E3E4
:100A700090E00E94C407A2FE17C0A1FC03C088E753
:100A800090E002C088E590E0B6010CC08A2D86781F
:100A900059F0A1FE02C08BE201C080E2A7FC8DE20A
:100AA000B60190E00E94C407891438F4B60180E3CF
:100AB00090E00E94C4079A94F7CF8A94F301E80D5E
:100AC000F11D8081B60190E00E94C4078110F5CF2E
:100AD000222009F442CEB60180E290E00E94C407D1
:100AE0002A94F6CFF6018681978102C08FEF9FEF9F
:100AF0002B96E2E10C947A08A9E0B0E0E2E8F5E098
:100B00000C9464086A01122FB02E2BE3201720F0FA
:100B1000FF24F394F00E02C02CE3F22E0F2D27E0F9
:100B2000AE014F5F5F4F0E94D606BC014981842F02
:100B30008970813031F0E1FC06C0E0FE06C090E231
:100B400005C09DE203C09BE201C090E05E2D5071A4
:100B500043FF3CC0911102C083E001C084E08117D3
:100B600018F4212F281B01C020E051110BC0F60101
:100B7000822F30E2882319F031938150FBCFC20ECF
:100B8000D11C20E0992329F0D6019C93F6013196DF
:100B90006F01C6010396E2FE0AC03EE4D6013C9313
:100BA00041E411964C93119712963C9306C03EE691
:100BB000F601308341E641833283FC01322F40E26B
:100BC000332309F442C041933150FACF42FF44C06D
:100BD000911102C083E001C084E0811718F4212F35
:100BE000281B01C020E051110BC0F601822F30E21A
:100BF000882319F031938150FBCFC20ED11C20E025
:100C0000992329F0D6019C93F60131966F01C60114
:100C10000396E2FE0BC039E4D6013C933EE4119604
:100C20003C93119736E412963C9307C039E6F601DF
:100C300030833EE6318336E63283FC01322F40E2D8
:100C4000332319F041933150FBCFFC01E20FF11D2A
:100C500010828EEF9FEFA6C021E030E0911102C01C
:100C600020E030E0161617061CF4FB01319602C096
:100C7000E1E0F0E02E0F3F1FBB2021F0EB2DF0E074
:100C8000319602C0E0E0F0E02E0F3F1FE12FF0E0D0
:100C90002E173F071CF4121B212F01C020E08E2DC0
:100CA000887159F4F601822F30E2882319F03193CC
:100CB0008150FBCFC20ED11C20E0992329F0D60130
:100CC0009C93F60131966F0151110BC0F601822FF2
:100CD00090E3882319F091938150FBCFC20ED11C71
:100CE00020E00F2D060F9A81342F307144FF03C08E
:100CF000913309F40150101624F4093018F008E07B
:100D000001C001E0AB0177FF02C040E050E0FB0111
:100D1000E41BF50BA1E0B0E0AC0FBD1FEA0FFB1F19
:100D20008EE2A82E4B01801A91080B2D10E0119530
:100D3000019511094F3FBFEF5B0721F4D601AC923B
:100D400011966D01641775072CF08416950614F43E
:100D5000818101C080E3415051093196D60111963D
:100D60007D014017510724F0D6018C936701E2CF33
:100D70006417750739F4963320F4953319F431115B
:100D800001C081E3F6018083F701822F90E288237E
:100D900019F091938150FBCFF701E20FF11D108202
:100DA00080E090E02996ECE00C948008283008F070
:100DB00027E03327DA01990F311D87FD91600096F6
:100DC0006105710539F432602E5F3D9330E32A9559
:100DD000E1F708959F3F30F080387105610509F013
:100DE0003C5F3C5F3D93913008F08068911DDF933C
:100DF000CF931F930F93FF92EF92192F987F9695A1
:100E0000E92F96959695E90FFF27E25FFE4F992708
:100E10003327EE24FF24A701E701059008940794E7
:100E200028F4360FE71EF81E491F511D660F771F65
:100E3000881F991F0694A1F70590079428F4E70EE0
:100E4000F81E491F561FC11D770F881F991F661F67
:100E50000694A1F70590079428F4F80E491F561F31
:100E6000C71FD11D880F991F661F771F0694A1F712
:100E70000590079420F4490F561FC71FD81F990FDC
:100E8000661F771F881F0694A9F784911095177025
:100E900041F0D695C79557954795F794E7941A95DD
:100EA000C1F7E4EBF0E068941590159135916591E8
:100EB000959105907FE27395E118F10A430B560B6B
:100EC000C90BD009C0F7E10CF11E431F561FC91F03
:100ED000D01D7EF4703311F48A95E6CFE89401506A
:100EE00030F0080F0AF40027021708F4202F23958A
:100EF000022F7A3328F079E37D932A95E9F710C021
:100F00007D932A9589F60694979567953795179559
:100F10001794E118F10A430B560BC90BD00998F04E
:100F200023957E9173957A3308F070E37C932013B8
:100F3000B8F77E9170617D9330F0839571E37D9376
:100F400070E32A95E1F71124EF90FF900F911F9124
:100F5000CF91DF91992787FD90950895FC01059029
:100F6000615070400110D8F7809590958E0F9F1FAB
:100F70000895FC016150704001900110D8F78095F0
:100F800090958E0F9F1F08950F931F93CF93DF931C
:100F9000FB01238121FD03C08FEF9FEF2CC022FFB7
:100FA00016C046815781248135814217530744F486
:100FB000A081B1819D012F5F3F4F318320838C93AE
:100FC000268137812F5F3F4F3783268314C08B01E3
:100FD000EC01FB010084F185E02D0995892BE1F6F8
:100FE000D80116968D919C911797019617969C9310
:100FF0008E931697CE01DF91CF911F910F91089597
:10100000FA01AA27283051F1203181F1E8946F9339
:101010006E7F6E5F7F4F8F4F9F4FAF4FB1E03ED0DF
:10102000B4E03CD0670F781F891F9A1FA11D680F7D
:10103000791F8A1F911DA11D6A0F711D811D911DB0
:10104000A11D20D009F468943F912AE0269F112425
:101050003019305D3193DEF6CF010895462F477089
:10106000405D4193B3E00FD0C9F7F6CF462F4F70E4
:10107000405D4A3318F0495D31FD4052419302D042
:10108000A9F7EACFB4E0A6959795879577956795E8
:10109000BA95C9F700976105710508959B01AC01E8
:1010A0000A2E06945795479537952795BA95C9F70F
:1010B000620F731F841F951FA01D08952F923F92EA
:1010C0004F925F926F927F928F929F92AF92BF9258
:1010D000CF92DF92EF92FF920F931F93CF93DF9304
:1010E000CDB7DEB7CA1BDB0B0FB6F894DEBF0FBE61
:1010F000CDBF09942A88398848885F846E847D84AE
:101100008C849B84AA84B984C884DF80EE80FD80AF
:101110000C811B81AA81B981CE0FD11D0FB6F89425
:0E112000DEBF0FBECDBFED010895F894FFCFE6
:10112E00544553540D0A0041542B43574A41503DE8
:10113E002243697263756974204F7074696F6E20F3
:10114E0031222C224952656D656D626572403331D4
:10115E002200257320436C2C2000257320526C2C0A
:10116E002000257320476C2C2000257320426C2C08
:10117E00200041542B43495053544152543D225464
:10118E004350222C226170692E7468696E677370E9
:10119E0065616B2E636F6D222C38300041542B43EA
:1011AE00495053454E443D353100474554202F7527
:1011BE0070646174653F6B65793D4C4D5056365287
:1011CE0034553548575A4C4D4537266669656C641B
:1011DE00313D6F7574730D0A0041542B43495043D2
:0611EE004C4F53450000C8
:00000001FF
