S0180000444132435F54325F4E6F726D616C5F432E73726563C3
S11300000C945A000C9464000C9464000C946400E6
S11300100C9464000C9464000C9464000C946400CC
S11300200C9464000C9464000C9464000C946400BC
S11300300C9464000C9464000C9464000C946400AC
S11300400C9464000C9464000C9464000C9464009C
S11300500C9464000C9464000C9464000C9464008C
S11300600C9464000C9464000C9464000C9464007C
S11300700C9464000C9464000C9464000C9464006C
S11300800C9464000C9464000C9464000C9464005C
S11300900C9464000C9464000C9464000C9464004C
S11300A00C9464000C9464000C9464000C9464003C
S11300B00C94640011241FBECFEFD8E0DEBFCDBF87
S11300C00E9466000C947E000C94000084E084B9C5
S11300D03A9814BC85E085BD91E02A98429A3299F9
S11300E0FCCF2A9A8CE4A89BFECF16BC95BB81500A
S11300F0D1F786B58A34E8F316BCEFCFF894FFCF76
S9030000FC
