S0110000444132415F54315F432E7372656395
S11300000C945A000C9464000C9464000C946400E6
S11300100C9464000C9464000C9464000C946400CC
S11300200C9464000C9464000C9464000C946400BC
S11300300C9464000C9464000C9464000C946400AC
S11300400C9464000C9464000C9464000C9464009C
S11300500C9464000C9464000C9464000C9464008C
S11300600C9464000C9464000C9464000C9464007C
S11300700C9464000C9464000C9464000C9464006C
S11300800C9464000C9464000C9464000C9464005C
S11300900C9464000C9464000C9464000C9464004C
S11300A00C9464000C9464000C9464000C9464003C
S11300B00C94640011241FBECFEFD8E0DEBFCDBF87
S11300C00E9466000C947E000C94000084E084B9C5
S11300D085B92FE78DE395E1215080409040E1F709
S11300E000C000002A982FEF88E29EE02150804053
S11300F09040E1F700C000002A9AEBCFF894FFCFBC
S9030000FC
