:100000000C945A000C946C000C946C000C946C00D2
:100010000C946C000C946C000C946C000C946C00B0
:100020000C946C000C946C000C946C000C946C00A0
:100030000C946C000C946C000C9492000C946C006A
:100040000C946C000C946C000C946C000C946C0080
:100050000C946C000C946C000C946C000C946C0070
:100060000C946C000C946C000C946C000C946C0060
:100070000C946C000C946C000C946C000C946C0050
:100080000C946C000C946C000C946C000C946C0040
:100090000C946C000C946C000C946C000C946C0030
:1000A0000C946C000C946C000C946C000C946C0020
:1000B0000C946C0011241FBECFEFD8E0DEBFCDBF83
:1000C00021E0A0E0B1E001C01D92A130B207E1F74C
:1000D0000E946E000C94A3000C94000084E084B98C
:1000E0008FEF87BDEEE6F0E08081826080837894B8
:1000F00014BC82E084BD85E085BD2A9A109200017F
:1001000008C0809100018A3121F486B58C38E8F36B
:1001100015B8809100018C32A0F386B58F33E8F3D7
:1001200016BCEBCF1F920F920FB60F9211248F9334
:10013000809100018F5F809300018F910F900FBE1F
:0A0140000F901F901895F894FFCF60
:00000001FF
