S0190000444132435F54325F4354435F4F56465F432E7372656307
S11300000C945A000C946C000C946C000C946C00CE
S11300100C946C000C946C000C946C000C946C00AC
S11300200C946C000C946C000C946C000C946C009C
S11300300C946C000C946C000C948D000C946C006B
S11300400C946C000C946C000C946C000C946C007C
S11300500C946C000C946C000C946C000C946C006C
S11300600C946C000C946C000C946C000C946C005C
S11300700C946C000C946C000C946C000C946C004C
S11300800C946C000C946C000C946C000C946C003C
S11300900C946C000C946C000C946C000C946C002C
S11300A00C946C000C946C000C946C000C946C001C
S11300B00C946C0011241FBECFEFD8E0DEBFCDBF7F
S11300C021E0A0E0B1E001C01D92A130B207E1F748
S11300D00E946E000C949E000C94000084E084B98D
S11300E03A988FEF87BDEEE6F0E0808182608083EE
S11300F0789414BC14BC85E085BD2A98429A329940
S1130100FCCF2A9A10920001809100018C34E0F314
S113011086B58A34E8F316BCF0CF1F920F920FB65F
S11301200F9211248F93809100018F5F80930001BF
S11301308F910F900FBE0F901F901895F894FFCFDA
S9030000FC
