:100000000C945A000C9464000C9464000C946400EA
:100010000C9464000C9464000C9464000C946400D0
:100020000C9464000C9464000C9464000C946400C0
:100030000C9464000C9464000C9464000C946400B0
:100040000C9464000C9464000C9464000C946400A0
:100050000C9464000C9464000C9464000C94640090
:100060000C9464000C9464000C9464000C94640080
:100070000C9464000C9464000C9464000C94640070
:100080000C9464000C9464000C9464000C94640060
:100090000C9464000C9464000C9464000C94640050
:1000A0000C9464000C9464000C9464000C94640040
:1000B0000C94640011241FBECFEFD8E0DEBFCDBF8B
:1000C0000E9466000C9481000C94000084E084B9C6
:1000D00014BC85E085BD91E02A9A80E006C08A3193
:1000E00021F426B52C38E8F315B8A89BFECF16BC32
:1000F00095BB8F5F8C3299F786B58F33E8F316BCCA
:06010000EBCFF894FFCFE5
:00000001FF
